{
  "contractName": "Humanize",
  "abi": [
    {
      "constant": true,
      "inputs": [
        {
          "name": "",
          "type": "address"
        }
      ],
      "name": "ipfsHash",
      "outputs": [
        {
          "name": "",
          "type": "string"
        }
      ],
      "payable": false,
      "stateMutability": "view",
      "type": "function"
    },
    {
      "constant": false,
      "inputs": [
        {
          "name": "x",
          "type": "string"
        }
      ],
      "name": "storeHash",
      "outputs": [],
      "payable": false,
      "stateMutability": "nonpayable",
      "type": "function"
    }
  ],
  "bytecode": "0x608060405234801561001057600080fd5b5061034d806100206000396000f30060806040526004361061004c576000357c0100000000000000000000000000000000000000000000000000000000900463ffffffff16806371dc61cb14610051578063ca4bc9eb146100ba575b600080fd5b34801561005d57600080fd5b506100b8600480360381019080803590602001908201803590602001908080601f0160208091040260200160405190810160405280939291908181526020018383808284378201915050505050509192919290505050610176565b005b3480156100c657600080fd5b506100fb600480360381019080803573ffffffffffffffffffffffffffffffffffffffff1690602001909291905050506101cc565b6040518080602001828103825283818151815260200191508051906020019080838360005b8381101561013b578082015181840152602081019050610120565b50505050905090810190601f1680156101685780820380516001836020036101000a031916815260200191505b509250505060405180910390f35b806000803373ffffffffffffffffffffffffffffffffffffffff1673ffffffffffffffffffffffffffffffffffffffff16815260200190815260200160002090805190602001906101c892919061027c565b5050565b60006020528060005260406000206000915090508054600181600116156101000203166002900480601f0160208091040260200160405190810160405280929190818152602001828054600181600116156101000203166002900480156102745780601f1061024957610100808354040283529160200191610274565b820191906000526020600020905b81548152906001019060200180831161025757829003601f168201915b505050505081565b828054600181600116156101000203166002900490600052602060002090601f016020900481019282601f106102bd57805160ff19168380011785556102eb565b828001600101855582156102eb579182015b828111156102ea5782518255916020019190600101906102cf565b5b5090506102f891906102fc565b5090565b61031e91905b8082111561031a576000816000905550600101610302565b5090565b905600a165627a7a723058204e4713eb96e867e02a2798db9f7fa461f1c7b2e46fc687a35d36b52c65daa3f70029",
  "source": "pragma solidity ^0.4.24;\n\n/** @title The Humanize Project Smart Contract */\n/*\nActs as the bridge between the web application, IPFS,\nand the Ethereum blockchain.\nHandles the logic of storing and returning the IPFS hash\nof each media file on the blockchain.\n*/\ncontract Humanize {\n\n // mapping for holding the IPFS hash of a given\n // user's address on the blockchain\n mapping (address => string) public ipfsHash;\n\n /** @dev Stores the IPFS hash returned from adding a file\n     on the IPFS network into the msg.sender's ipfsHash mapping.\n   * @param x The hash returned from the IPFS network.\n   */\n function storeHash(string x) public {\n   ipfsHash[msg.sender] = x;\n }\n\n}\n",
  "sourcePath": "/Users/Des1derata/Desktop/Code/Humanize-Final/contracts/Humanize.sol",
  "compiler": {
    "name": "solc",
    "version": "0.4.24+commit.e67f0147.Emscripten.clang"
  },
  "schemaVersion": "2.0.1",
  "updatedAt": "2018-08-27T03:35:37.419Z"
}